:100000000C9496080C94B3080C94B3080C94B308A1
:100010000C94B3080C94B3080C94B3080C94B30874
:100020000C94B3080C94B3080C94B7200C94F91FEB
:100030000C947F270C94B3080C94B3080C94B30869
:100040000C94B3080C94B3080C94B3080C94B30844
:100050000C94B3080C9432270C94B3080C94B30896
:100060000C94B3080C94B3080C94B3080C94B30824
:100070000C94B3080C94B3080C94B3080C94B30814
:100080000C94B3080C94B3080C94B3080C94B30804
:100090000C94B3080C94B3080C94B3080C94B308F4
:1000A0000C94B3080C94B3080C94B308970AB709DE
:1000B000BD09C309C909CF09D509DB09E109E70968
:1000C000ED09F309F909FF09050A0B0A110A170AD4
:1000D0001D0A230A290A2F0A350A3B0A410A470A40
:1000E0004D0A530A590A5F0A650A6B0A710A770AB0
:1000F0007D0A830A890A8F0AC10DC10DEF0DEF0D2C
:10010000550E720F720F720F730EE70EF80EF80E87
:1001100074147914831477147C1481147F142B16AF
:100120002E163116341637163A163D16181E3F1E77
:10013000D71F3F1ED71F871EAA1ED71F991FAC1F90
:100140000102E10101190103E101043130307C01B8
:10015000010A000102E101011F0103E10104313044
:10016000307C010109000102E101011F0103E101ED
:10017000043130307C010107000102E101011F015F
:1001800003E101043130307C010116000102E1017C
:10019000011F0103E101043130307C010104000141
:1001A00002E00102E10101180103E10103E00104A1
:1001B0003130307C01011E01043130307C010124DA
:1001C00001043130307C01010701043130307C0101
:1001D0000128000102E00102E10101180103E1012F
:1001E00003E001043130307C01011E010431303064
:1001F0007C01012701043130307C0101060104310A
:1002000030307C010128000102E00102E101011807
:100210000103E10103E001043130307C01011E01E2
:10022000043130307C01012301043130307C010184
:100230002701043130307C010128000102E0010275
:10024000E10101180103E10103E001043130307CD8
:1002500001011E01043130307C01012401043130E0
:10026000307C01010801043130307C01012800019B
:1002700002E00102E10101180103E10103E00104D0
:100280003130307C01011E01043130307C01012706
:1002900001043130307C01010701043130307C0130
:1002A0000128000102E00102E10101180103E1015E
:1002B00003E001043130307C01011E010431303093
:1002C0007C01012301043130307C01011E01043125
:1002D00030307C010128000102E001010E0103E041
:1002E00001043130307C0102E001010C0103E00027
:1002F0000102E001010E0103E001043130307C0114
:1003000002E00102E10101130103E10103E0000148
:1003100002E001010E0103E001043130307C0102F2
:10032000E00102E101014F0103E10103E0000102EC
:10033000E001010E0103E001043130307C0102E0F4
:100340000102E10101520103E10103E0000102E0C9
:1003500001010E0103E001043130307C0102E001B3
:1003600002E10101510103E10103E0000102E001AA
:10037000010E0103E001043130307C0102E0010292
:10038000E10101500103E10103E0000102E001018C
:100390000E0103E001043130307C0102E00102E192
:1003A0000101160103E10103E0000102E001010E79
:1003B0000103E001043130307C0102E001014F0112
:1003C00003E0000102E001010E0103E0010431300D
:1003D000307C0102E00101520103E0000102E00172
:1003E000010E0103E001043130307C0102E0010123
:1003F000510103E0000102E001010E0103E00104EC
:100400003130307C0102E00101500103E0000102C3
:10041000E001010E0103E001043130307C0102E013
:100420000102E10101080103E10103E0000102E032
:1004300001010E0103E001043130307C01014F0065
:100440000102E001010E0103E001043130307C01C2
:100450000152000102E001010E0103E0010431300C
:10046000307C010151000102E001010E0103E001B5
:10047000043130307C010150000102E301014F01E1
:1004800003E3000102E30101510103E3000102E380
:100490000101500103E3000102E00101130103E047
:1004A000000102E30101520103E3000102E2010144
:1004B0003D0103E2000102E00102E101012201032A
:1004C000E10103E0000102E00102E1010146010354
:1004D000E10103E0000102E10101440103E1000147
:1004E00002E00101440103E0000000000000000000
:1004F00000000000000000000000000000000000FC
:1005000000000000000000000000000000000000EB
:1005100000000000000000000000000000000000DB
:1005200000000000000000000000000000000000CB
:1005300000000000000000000000000000000000BB
:1005400000000000000000000000000000000000AB
:10055000000000000000000000000000000000009B
:10056000000000000000000000000000000000008B
:1005700000000000000000000001FFFF01FFFF017C
:10058000FFFF01FFFF01FFFF56FFFF56FFFF56FF72
:10059000FF56FFFF56FFFF92E0FF56FFFF56FFFF9B
:1005A00056FFFF56FFFF92E0FF56FFFF56FFFF5634
:1005B000FFFF56FFFF92E0FF86FFD500000000001E
:1005C0000001FFFF01FFFF01FFFF01FFFF01FFFF30
:1005D00056FFFF56FFFF56FFFF56FFFF56FFFF5621
:1005E000FFFF56FFFF56FFFF56FFFF56FFFF56FF68
:1005F000FF56FFFF56FFFF56FFFF56FFFF000000AC
:1006000000000000000000000000000000000000EA
:100610000000000000000000D7EDFFD7EDFFD7ED90
:10062000FFD7EDFF02F2FF92E0FF92E0FF92E0FFC2
:1006300092E0FF02F2FF56FFFF56FFFF56FFFF5604
:10064000FFFF02F2FF0000000000000000000000B9
:100650000000000092E0FF00000000000000000029
:1006600000000092E0FF01FFFF00000001FFFF001B
:10067000000001FFFF01FFFF01FFFF00000000007D
:10068000000000000000000000000000000000006A
:10069000000000000000000000000000000000005A
:1006A000000000000000000056FFFF92E0FF92E013
:1006B000FF56FFFF00000007FFFF07FFFF07FFFFD8
:1006C00007FFFF00000056FFFF000000000000567B
:1006D000FFFF56FFFF0000000000000000000000C8
:1006E0000056FFFF56FFFF92E0FF01FFFF01FFFFF3
:1006F00092E0FF01FFFF92E0FF56FFFF56FFFF561B
:10070000FFFF01FFFF01FFFF92E0FF56FFFF56FFD3
:10071000FF01FFFF56FFFF56FFFF56FFFF92E0FF6E
:1007200092E0FF0000000000000000000000000058
:10073000000000000000000045E0FF000000000095
:1007400000000000000000000000000000000000A9
:100750000000000000000000000000000000000099
:100760000000000000000000000000000000000089
:100770000000000000000000000000000000000079
:100780000000000000000000000000000000000069
:10079000000001FFFF00000045E0FF000000000036
:1007A0000000000045E0FF00000000000000000025
:1007B0000000000000000000000000000000000039
:1007C000000000000000000092E0FF0000000000B8
:1007D0000000000000000000000000000000000019
:1007E0000000000000000000000000000000000009
:1007F00000000000000000000000000000000000F9
:1008000000000000000000000000000000000000E8
:1008100000000000000000000000000000000000D8
:10082000000000000000000092E0FF000000000057
:100830000000000092E0FF00000000000000000047
:1008400000000000000000000000000000000000A8
:100850000000000000000000000000000000000098
:100860000000000000000000000000000000000088
:100870000000000000000000000000000000000078
:100880000000000000000000000000000000000068
:100890000000000000000000000000000000000058
:1008A0000000000000000000000000000000000246
:1008B000F2FF02F2FF02F2FF02F2FF02F2FF00007B
:1008C0000000000000000000000000000000000028
:1008D00000000000000000000029002B000351E18F
:1008E00000E00000001E00140004001C00E30028CB
:1008F000001F001A0016001B00E200025120000831
:1009000000070006005000015121001500090019E0
:10091000004F003900220017000A0005000000B651
:100920005D2A00005700001D030000B75D005C4D0C
:100930000000004A000000460023001D000B0011CB
:10094000000000B85D240018000D00100052001ACD
:100950005C25000C000E00360051000157260012E5
:10096000000F003700010028002700130033003873
:100970000001000651010001003400E50001000003
:10098000003500010001000100010000003A001ED6
:100990000220022202010001003B001F022102236B
:1009A00002010001003C00025704570657010001F4
:1009B000003D00035705570757010001003E003175
:1009C00002350035020000010001004C0000002843
:1009D0000000000100010001000000010000000112
:1009E000003F0020024B004E0000000100400021AB
:1009F00002360231024A000100410038022E001E78
:100A0000024D00010042002D0037022402010001C6
:100A100000430025022E0231000100010044004580
:100A2000000100010001000000010001000451016B
:100A300000010000000100BA5D0100010001000199
:100A40000001000100BD5D0100010001000100BBCB
:100A50005DBE5D010001000100B95DBC5DBF5D01CF
:100A6000000100010001000100010001000000017F
:100A70000001000100000001000000010001000170
:100A80000000000100000001000100C05DC55DCA5A
:100A90005D000001000100C15DC65DCB5D0100018C
:100AA000000100C25DC75DCC5D010001000100C313
:100AB0005DC85DCD5D010001000100C45DC95DCE72
:100AC0005D010001000100010001000100010000C2
:100AD000000100010001000100010000002B0209DB
:100AE00003160145020100010035010901E100CFB3
:100AF0005D01002800E609E0004A002B0F2A0001F2
:100B00000006044B004D004E004C0001001A04E2A8
:100B100000240307010000010001000100000001A2
:100B200000000001000100010000000100000001C0
:100B3000000100060150001B010000010001000837
:100B40005751000100010001000100095752000146
:100B50000001000100010019014F00090601000118
:100B60000001000100010004050100010001000175
:100B7000000100010001000000010001000100016E
:100B8000000100000001000100010001000100015E
:100B90000001000100D05D01000100010001000121
:100BA000000100D15D0100010001000100055101BB
:100BB000000100010001000100010001000000012E
:100BC000000100010000000100000001000100011F
:100BD0000000000100000001000100D25D010001E1
:100BE00000000001000100010001000100010001FE
:100BF00000010001000100010001000100010001ED
:100C000000010001000100010001000100010001DC
:100C100000010001000100010001000100010000CD
:100C200000010001000100010001000000010001BD
:100C300000010001000100010001000100D35D017D
:100C40000001000100010001000100D45D0100016C
:100C5000000100010001000100010001000100018C
:100C6000000100010000000100010001000000017E
:100C7000000000010001000100000001000000016F
:100C8000000100D55D01000100000001000100012C
:100C9000000100010001000100010001000100014C
:100CA000000100010001000100010001000100013C
:100CB000000100010001000100010001000100012C
:100CC000000100010001000000010001000100011D
:100CD000000100000001000100D65D0100010001DB
:100CE0000001000100D75D010001000100010001C9
:100CF00000D85D01000100010001000100D95D0183
:100D0000000100010001000100DA5D0100000001A6
:100D100000010001000000010000000100010001CD
:100D200000000001000000010001000100010001BD
:100D300000000001000100010001000100010001AC
:100D4000000100010001000100010001000100019B
:100D5000000100010001000100010001000100018B
:100D6000000100010001000100010001000100007C
:100D70000005010980A101850319012AB7001501A9
:100D800026B700950175108100C0050C0901A1016D
:100D9000850419012AA002150126A00295017510EB
:100DA0008100C005010906A1018506050719E02992
:100DB000E71500250195087501810205071900292D
:100DC000EF1500250195F07501810205081901292B
:100DD00005950575019102950175039101C0050105
:100DE0000906A101050719E029E715002501950865
:100DF000750181029501750881010507190029FF18
:100E0000150026FF009506750881000508190129BF
:100E100005950575019102950175039101C00902BF
:100E20003B00020100A0FA090400000103010100D7
:100E3000092111010001224000070581030800017A
:100E40000904010001030000000921110100012231
:100E50006D0007058203200001120100020000005E
:100E60000897327649010001020001200345007213
:100E70000067006F0044006F007800200045005AB2
:100E800000200047006C006F007700000028035A24
:100E90000053004100200054006500630068006EAC
:100EA000006F006C006F006700790020004C00614B
:100EB0000062007300000004030904000101010145
:100EC0000101010101020202020202020202030305
:100ED00003030303030304040404040404050505D5
:100EE0000505060606060607070707070808080897
:100EF000090909090A0A0A0B0B0B0C0C0C0D0D0D44
:100F00000E0E0E0F0F0F10101111111212131314D9
:100F100014151516161717181819191A1A1B1B1C51
:100F20001D1D1E1E1F2020212222232424252626AB
:100F3000272829292A2B2C2D2D2E2F3031323233E0
:100F40003435363738393A3B3C3D3E3F40414243E9
:100F50004445464748494A4C4D4E4F5051535455CD
:100F60005658595A5B5D5E5F616264656668696B7D
:100F70006C6D6F7072737577787A7B7D7E808283FB
:100F80008587888A8C8E8F91939596989A9C9EA03F
:100F9000A2A3A5A7A9ABADAFB1B3B5B7BABCBEC04C
:100FA000C2C4C6C9CBCDCFD1D4D6D8DBDDDFE2E415
:100FB000E7E9EBEEF0F3F5F8FAFDFF0044345400F6
:100FC0007464840055456500857595003626460095
:100FD000665676009686A600372747007767870013
:100FE00038284800887898003929490069597900DB
:100FF0009989A9003A2A4A006A5A7A003B2B4B0089
:101000006B5B7B004C3C5C007C6C8C005D4D6D0030
:101010008D7D9D003E2E4E006E5E7E014434540157
:101020007464840155456501857595013626460130
:10103000665676019686A6013727470177678701AE
:101040003828480188789801392949016959790176
:101050009989A9013A2A4A016A5A7A013B2B4B0124
:101060006B5B7B014C3C5C017C6C8C015D4D6D01CC
:101070008D7D9D013E2E4E016E5E7E0000000000C3
:101080000000000000000000000000000000000060
:101090000000000000000000000000000000007ED2
:1010A0000F00D4FFFFFFC700000078000000000021
:1010B0000000002A2B2800000000000000000000B3
:1010C00000000000000029000000002C1E34202138
:1010D0002224342627252E362D3738271E1F20217F
:1010E00022232425263333362E37381F04050607DE
:1010F00008090A0B0C0D0E0F1011121314151617F8
:1011000018191A1B1C1D2F3130232D350405060715
:1011100008090A0B0C0D0E0F1011121314151617D7
:1011200018191A1B1C1D2F3130354C0011241FBEFD
:10113000CFEFDAE0DEBFCDBF12E0A0E0B1E0E4E93E
:10114000FBE602C005900D92A83CB107D9F725E057
:10115000A8ECB2E001C01D92A539B207E1F70E94E8
:10116000322A0C94C8350C940000ADE0B0E0EBEBF3
:10117000F8E00C94902FFC018081918123813481CF
:10118000232B31F09F3F31F491E08F3F19F403C0DE
:1011900091E001C090E090FDE7C67F0185E0DE01AF
:1011A000199601900D928A95E1F7D70112962C912C
:1011B00089859A85222349F00E946B2C182F682F6D
:1011C00089859A850E94DB2C03C00E94A72C182FCA
:1011D00069857A85812F0E94D9168C01F701828159
:1011E000882369F18091260590912705009709F4DD
:1011F000ABC68017910709F4A7C6FEE08F9FC00118
:101200001124FC01ED5DFE4F208124602083825E6D
:101210009E4FDC010D931C930E94232810922505FC
:10122000033BBDE51B0779F0043BEDE51E0709F420
:101230004CC0033CFCE51F0709F08BC06AC0033BB0
:10124000FDE51F07E9F5D70112968C91882309F473
:1012500072C190919C0381E0890F8770987F8530DF
:1012600020F4892B80939C0302C090939C0380916F
:101270009C038770BFEF8B9FC001112495958795C4
:1012800095958795992790938900809388009093EE
:101290008B0080938A0090938D0080938C00409106
:1012A0009C0350919D0360919E0370919F038FE07A
:1012B00090E00E94113080919B030E945E143BC11C
:1012C000043B2DE5120709F03FC0F7018281882316
:1012D00009F431C180919C0383FB222720F991E01E
:1012E000922790FB83F980939C03992329F040E097
:1012F00060E080E00E941C2340919C0350919D037C
:1013000060919E0370919F038FE090E00E941130E6
:1013100012C1D70112968C91882309F4D2C39091FF
:101320009603809190039F3F59F410929603816039
:101330008093900340E060E080E00E941C23C1C3E2
:101340009FEF9093960381C2033C8CE5180709F444
:10135000B8C3F801E55BFD45E632F10508F0EBC0E6
:10136000EA5AFF4FD70112969C910C94D3319923DE
:1013700009F431C18FED94E0D7C0992309F42BC152
:1013800085ED94E0D1C0992309F425C185EC94E062
:10139000CBC0992309F41FC185EB94E0C5C0992304
:1013A00009F419C18BEA94E0BFC0992309F413C171
:1013B00081EA94E0B9C0992309F40DC187E994E06A
:1013C000B3C0992309F407C18DE894E0ADC0992317
:1013D00009F401C183E894E0A7C0992309F4FBC094
:1013E00089E794E0A1C0992309F4F5C086E694E06A
:1013F0009BC0992309F4EFC083E594E095C099233D
:1014000009F4E9C080E494E08FC0992309F4E3C0B3
:101410008DE294E089C0992309F4DDC08EE094E068
:1014200083C0992309F4D7C085EF93E07DC0992349
:1014300009F4D1C08CED93E077C0992309F4CBC0B7
:1014400083EC93E071C0992309F4C5C08AEA93E064
:101450006BC0992309F4BFC08BE893E065C0992362
:1014600009F4B9C08CE693E05FC0992309F4B3C0D6
:101470008DE493E059C0992309F4ADC08EE293E066
:1014800053C0992309F4A7C08FE093E04DC099237E
:1014900009F4A1C080EF92E047C0992309F49BC0F2
:1014A00087ED92E041C0992309F495C083EA92E068
:1014B0003BC0992309F48FC08FE692E035C0992391
:1014C00009F489C08BE392E02FC0992309F483C00B
:1014D00087E092E029C0992309F47DC083ED91E073
:1014E00023C0992309F477C08FE991E01DC09923A7
:1014F00009F471C08CE891E017C0992309F46BC01E
:1015000089E791E011C0992309F465C086E691E06E
:101510000BC0992309F45FC083E591E005C09923CE
:1015200009F459C080E491E00E949D1C54C09923A5
:1015300009F4C7C293C1C80197558F3F910511F0B7
:1015400008F049C05801BB24BEE00B9FF0011124F4
:10155000CF01825E9E4F6C01D70112969C9112972B
:10156000ED5DFE4F808190FB80F9808312969C9107
:10157000992309F47AC10E94732790936805809398
:101580006705F60182818F5F8283909125058091A6
:101590006103892B83838091580384830680F781BC
:1015A000E02D309739F0D6011C966D917C911D97F6
:1015B000C60109958EE08A9DF0018B9DF00D1124E6
:1015C000ED5DFE4F808181FF4DC190E080E0909302
:1015D0002605809327050E9473275C01F70182810D
:1015E000882309F4D1C080910F0182FF07C049E62A
:1015F00055E0B50180E090E00E946A280931FCE5E1
:101600001F07D1F178F407318CE5180759F108313B
:101610009CE5190709F0A9C080910D0190910E0178
:10162000059725C00B31ACE51A0789F048F00C315D
:10163000ECE51E0709F099C080910F018E7F0DC067
:1016400080910F01982F909590FB80F906C08091B2
:101650000F01816080930F0188C080930F010E9469
:101660004B2883C080910D0190910E0105969093B7
:101670000E0180930D0179C080910E018F938091AE
:101680000D018F938DEA91E09F938F931F9288E0D5
:101690008F93CE0101966C019F938F930E94073325
:1016A0000FB6F894DEBF0FBECDBF4AE0742EF60130
:1016B0008081882309F459C0813009F050C08181AC
:1016C000813051F44601F2E08F0E911CD601129642
:1016D0008C910E94672E0AC0823051F44601B2E01C
:1016E0008B0E911CF60182810E94CB2D640139C0C2
:1016F000833051F44601F2E08F0E911CD601129610
:101700008C910E949F2DF2CF843021F0BFEFCB1A35
:10171000DB0A27C0F6012281C60102966C0180E037
:1017200090E030E0205331092A30310570F4789E82
:10173000A001799E500D1124C901840F951FAFEFB0
:10174000CA1ADA0AF6012081ECCF009751F0AFE90E
:10175000BFE01197F1F700C000000197F6CF0E949B
:101760002A29BFEFCB1ADB0AA2CFC80190568115F8
:10177000E0E29E0720F0905E8115904108F51092FE
:1017800024051092230536C0013E110521F48091F5
:101790000F018F7E06C0053E110531F480910F01C7
:1017A0008F7D80930F010CC0C8019056811520E2F7
:1017B000920708F4C5C3905E8115904108F4C0C338
:1017C00080910F0180FF16C0F70182810933110556
:1017D00060F40D32110508F04EC098012450310913
:1017E0002432310508F447C0AAC00436110509F4B3
:1017F00042C0A5C0D70112969C919111F3C080916F
:10180000610382720A3CFCE51F0709F4D7C008F5A2
:10181000063CACE51A0709F4C2C008F093C0043CCA
:10182000ECE51E0709F4B1C008F0B4C0033C2CE598
:10183000120709F0D4C09091910381E08927809329
:10184000910310920701809190038160809390032F
:1018500038C10E3CBCE51B0709F07EC081E00E9448
:10186000841C2FC1902F812FB2CE81FFB4CEC60130
:101870000E940928B0CE882309F45BC080915803E8
:1018800090916103982B292F2D7F49F11092240507
:1018900010922305F80124E0F695E7952A95E1F7E3
:1018A000EE0FFF1FEF5FFA4F98012F70332781E093
:1018B00090E002C0880F991F2A95E2F780959095D5
:1018C000208131818223932391838083C8010E94E8
:1018D000E411809158038D7F0E94F51826C026E000
:1018E000F701A9E6B5E001900D922A95E1F7109273
:1018F0006B0510926D0510926C0596959170209174
:101900000F0190FB21F920930F018D7F0E94F518A4
:101910001093240500932305B0922205A09221057F
:1019200080910F01846080930F0182E00E9468190A
:10193000C8C0A701B501C8010E946A28C2C08111B0
:101940001ECFFEC2083C9CE5190771F190F54AEAEA
:1019500052E260EA72E240C00F3CECE51E0750F430
:101960000C3CFCE51F0779F198F549E752E26CE67B
:1019700072E232C0073D8CE5180708F4A2C00F35AB
:10198000ADE51A0709F49DC02AC044EB52E26EEBA4
:1019900072E222C04EEB52E264EB72E21DC040EAFA
:1019A00052E26AEA72E218C046E852E263E972E281
:1019B00013C043E952E266E872E20EC04CE652E21E
:1019C00069E772E209C04EE851E26CE971E204C0D5
:1019D0004CE951E26EE871E20E94872972C09923B6
:1019E00009F482C00C35BDE51B0709F464C060F43E
:1019F0000115FCE51F07A9F00F3D2CE5120709F0C2
:101A000073C00E9479184CC00E358DE5180709F493
:101A10004AC008F452C0093AADE51A0709F440C0BB
:101A200063C0109261030E946C2DBFEFE4E3FCE001
:101A3000B150E040F040E1F700C00000F89481E0D0
:101A40008093E00080E28093D8001092C9008FE17B
:101A50009EE40197F1F700C000001DBA10926800E3
:101A60001CBC10BE1FBA10927A0010926E00109229
:101A70006F0010927100109272001092C9001092C3
:101A8000BC0014B817B81AB81DB810BA1092BC0030
:101A900015B818B81BB81EB811BA0C94003F11C085
:101AA0000E94B2100EC08091340582FB882780F915
:101AB00091E0892703C081E001C080E00E94851980
:101AC00013C080913703877009F44EC2D701129674
:101AD0008C91882309F448C28091340582FF44C266
:101AE00082E00E94681940C2F70182810081118161
:101AF000882349F0C8010E946B2CD82E682FC8019A
:101B00000E94DB2C04C0C8010E94A72CD82EB8016B
:101B10008D2D0E94D9160E94F216D82E192FA82EAC
:101B2000F7010281C580C2949FE0C92280913703EA
:101B30008770B9F00023A9F0812F807F803421F0D5
:101B400080E28D0D883068F08091340582FF09C0F5
:101B500082E00E946819809137038770BB24B39498
:101B60008111B12C912E92948FE09822892D90E0D2
:101B70008C30910508F0B6C1FC01E458FF4F0C947D
:101B8000D331812F807F1F70882311F01295107F31
:101B90000023A9F0112309F493C180E28D0D883050
:101BA00010F0A11004C0812F0E940D1905C0809172
:101BB0002505182B109325050E94131981C18D2D21
:101BC0000E949F2D112309F48DC180E28D0D883074
:101BD00058F1AA2049F1812F0E94FF1828C0812FB7
:101BE000807F1F70803211F01295107F8D2DAA20FA
:101BF00021F0F1E0AF16B1F142C08091340582FDD1
:101C000019C0002359F0112329F0812F0E940D19CA
:101C10000E94131980E00E94CB2D64C180E00E94D5
:101C20009F2D112309F45EC1812F0E9406190E9485
:101C3000131958C1002369F080915803C11002C0E4
:101C4000812B17C021E0812BC21213C00E94F5180E
:101C500049C1CC2021F081E0C81609F443C10E949B
:101C6000EF181FC0002341F091E09C1508F43AC121
:101C7000812F0E94982D36C1C11034C112C000239B
:101C800019F0CC20A9F31CC1CC2059F0893309F0FC
:101C900026C1AFEFB7EEE3E0A150B040E040E1F77E
:101CA0001CC1812F0E94912D1DC1812F8695869583
:101CB000837019F0813061F015C1002321F08D2D62
:101CC000912F937002C080E090E00E94E62710C13F
:101CD000002321F08D2D912F937002C080E090E0C1
:101CE0000E94D02705C1812F8370A9F50111FEC084
:101CF0004D2D429546954770440F440F8D2D8F70A2
:101D000090E09C01042E01C0220F0A94EAF7D4FE51
:101D100008C08FE090E001C0880F4A95EAF78095EF
:101D200001C080E0169516951370123069F088F4A2
:101D300090915903113019F0822B892302C0922B04
:101D4000892B0E94302DD2C0822B90915903892774
:101D5000F8CF822BF6CF002319F0812F817001C0BC
:101D60008695882309F4C2C04D2D4295469547704B
:101D7000440F440F8D2D8F7090E09C01042E01C004
:101D8000220F0A94EAF7D4FE08C08FE090E001C069
:101D9000880F4A95EAF7809501C080E01695169560
:101DA0001370123059F078F490919B03113019F0B0
:101DB000822B892309C0922B892B06C0822B9091FC
:101DC0009B03892701C0822B0E94102D8FC01F709A
:101DD000002339F0812F0E94242D8D2D0E94982DF3
:101DE00085C08D2D0E94912D812F0E94172D7EC0C0
:101DF0008D2DF2EFAF1669F1FA1538F020EFA2162B
:101E000059F091EFA91601F157C0A3EFAA1641F1BD
:101E1000B4EFAB16A9F050C0002369F0C11062C046
:101E20001F7181E090E001C0880F1A95EAF7909148
:101E30009B0389271FC0E1E0EC1508F453C0F0CFE5
:101E40008091340582FD19C0002329F0812F8F7104
:101E500026C00023D9F3812F8F710E94172D42C015
:101E6000002339F01F7181E001C0880F1A95EAF74D
:101E700001C080E00E94102D35C0002399F01F7131
:101E8000812F0E94242D8091340582FF07C0F8E045
:101E90001F9FC0011124836080933703812F0E940C
:101EA000242D20C081E00E94681921E02C15D0F477
:101EB00082E00E94681916C0002321F0CC2031F284
:101EC0008D2DA9CECC2039F2893349F48FEF97EECE
:101ED000A3E081509040A040E1F700C000008D2DAC
:101EE0000E949F2D88EF890D843010F40E94FC27FA
:101EF000BB20A9F08091370380FD11C0F701128249
:101F00008595859585950E94242DC7010E94B50869
:101F1000809137038595859585950E94172D85E0DD
:101F2000F701DE01119601900D928A95E1F7098182
:101F30001A81C8010E94A72CB8010E94D91614C0AA
:101F4000D70112969C915BCC033BBDE51B0709F4BE
:101F500080C9043BEDE51E0709F4B7C9033CFCE565
:101F60001F0709F0F6C9DBC92D96EDE00C94AC2FE4
:101F70009C013A9521153F4130F5BC0166277270EE
:101F8000AC01442754709C012227387094FF0FC085
:101F900090FF02C080E101C080E0672B09F0806201
:101FA000452B09F08064232B79F080680895892FF0
:101FB0008170672B09F08260452B09F08460232B28
:101FC00019F08860089580E00895FC0182818130D5
:101FD00039F4958192FD12C090FF10C082E00895FF
:101FE000823039F4858182FD06C080FD06C083E021
:101FF000089586E0089585E0089584E00895A7E1B6
:10200000B0E0E5E0F0E10C949A2F4B8B5C8B6D8B8C
:102010007E8B8F8B61111092250586E09E01235FD8
:102020003F4FD901E82F1D92EA95E9F795E0FE01AF
:102030007396D90101900D929A95E1F79C894E898A
:102040005F897B897D879E876F87598B488BF901D4
:10205000DE01179601900D928A95E1F7CE01079661
:102060000E94141A81113EC086E0FE013796DE01FF
:10207000119601900D928A95E1F7FF81E8856A85B6
:102080007B856115710531F0EF3F31F481E0FF3F51
:1020900019F403C081E001C080E080FD23C02091DD
:1020A000050330E0C90101968770992740913603F6
:1020B00050E08417950779F1F983EA837D836C8377
:1020C00096E0929FD001939FB00D1124AA5FBC4F60
:1020D000FE01319601900D929A95E1F780930503E8
:1020E0000E94A11916E0809136039091050389178B
:1020F00009F1189FC00111248A5F9C4F0E94141A95
:102100008823C1F08091360390E00196877099276B
:1021100080933603E8CF109261030E946C2D1092D9
:10212000050310923603EFEFF2E086E0DF011D9227
:102130008A95E9F76796E3E00C94B62F982F92956D
:102140009F7019F0892F24E001C020E0982F969508
:10215000969511F02E5F892F982F969509F02F5F95
:10216000822F0895109261030E946C2D2FEF84E35B
:102170009CE0215080409040E1F700C000009AE0D0
:1021800088E10FB6F894A895809360000FBE9093F5
:102190006000FFCFCF93DF93EC010E949F2DCE0113
:1021A000805E9109089710F0209731F4CE010E94CB
:1021B000B80F0E94912D05C0CE010E94B80F0E9459
:1021C000802DDF91CF9108958FE39CE90197F1F77E
:1021D00000C000008091DE02823041F018F48130AE
:1021E00029F008C0833011F0853021F48CE490E0B0
:1021F0000E94CA101092DE0208958FE39CE90197B5
:10220000F1F700C000008091DC02823041F018F448
:10221000813029F008C0833011F0853021F48AE242
:1022200090E00E94CA101092DC0208958FE39CE9AE
:102230000197F1F700C000008091DA02823041F08E
:1022400018F4813029F008C0833011F0853021F472
:1022500080E390E00E94CA101092DA0208958FE3A2
:102260009CE90197F1F700C000008091D80282300C
:1022700041F018F4813029F008C0833011F0853026
:1022800021F48FE290E00E94CA101092D8020895C3
:102290008FE39CE90197F1F700C000008091D6021E
:1022A000823041F018F4813029F008C0833011F0F9
:1022B000853021F487E292E00E94CA101092D60283
:1022C00008958FE39CE90197F1F700C00000809129
:1022D000D402823041F018F4813029F008C08330F4
:1022E00011F0853021F486E292E00E94CA1010922B
:1022F000D40208958FE39CE90197F1F700C0000034
:102300008091D202823041F018F4813029F008C067
:10231000833011F0853021F480E392E00E94CA10EE
:102320001092D20208958FE39CE90197F1F700C063
:1023300000008091D002823041F018F4813029F001
:1023400008C0833011F0853021F48FE292E00E94C2
:10235000CA101092D00208958FE39CE90197F1F71B
:1023600000C000008091CE02833071F028F48130EB
:1023700059F0823049F00CC0843019F0853021F0DA
:1023800007C081EE90E002C08CE290E00E94CA108B
:102390001092CE0208958FE39CE90197F1F700C0F7
:1023A00000008091CC02823041F018F4813029F095
:1023B00008C0833011F0853021F48DE191E00E9456
:1023C000CA101092CC020895CF93DF93EC01805E87
:1023D0009109089710F0209731F4CE010E94B80FB0
:1023E0000E94982D05C0CE010E94B80F0E94872D33
:1023F0008C2F0E94CB2DDF91CF9108950F931F93C7
:10240000CF93DF938C01C99719F0C0E0D0E002C0F0
:10241000C0E5D0E0C8010E94E411209741F08FE9A7
:102420009FE00197F1F700C000002197F6CFC801A7
:102430000E94CA10DF91CF911F910F910895CF9301
:10244000DF93EC018A81833061F48CE490E00E9498
:10245000FE118CE490E00E94FE118CE490E00E945A
:10246000FE118A81843020F08CE490E00E94FE11FD
:10247000DF91CF910895CF93DF93EC018A81833070
:1024800061F48AE290E00E94FE118AE290E00E94EC
:10249000FE118AE290E00E94FE118A81843020F0D1
:1024A0008AE290E00E94FE11DF91CF910895CF93D0
:1024B000DF93EC018A81833061F480E390E00E9435
:1024C000FE1180E390E00E94FE1180E390E00E9404
:1024D000FE118A81843020F080E390E00E94FE119A
:1024E000DF91CF910895CF93DF93EC018A81833000
:1024F00061F48FE290E00E94FE118FE290E00E9472
:10250000FE118FE290E00E94FE118A81843020F05B
:102510008FE290E00E94FE11DF91CF910895CF935A
:10252000DF93EC018A81833061F487E292E00E94BC
:10253000FE1187E292E00E94FE1187E292E00E9483
:10254000FE118A81843020F087E292E00E94FE1121
:10255000DF91CF910895CF93DF93EC018A8183308F
:1025600061F486E292E00E94FE1186E292E00E940F
:10257000FE1186E292E00E94FE118A81843020F0F2
:1025800086E292E00E94FE11DF91CF910895CF93F1
:10259000DF93EC018A81833061F480E392E00E9452
:1025A000FE1180E392E00E94FE1180E392E00E941F
:1025B000FE118A81843020F080E392E00E94FE11B7
:1025C000DF91CF910895CF93DF93EC018A8183301F
:1025D00061F48FE292E00E94FE118FE292E00E948D
:1025E000FE118FE292E00E94FE118A81843020F079
:1025F0008FE292E00E94FE11DF91CF910895CF9378
:10260000DF93EC018A81833061F48CE290E00E94D8
:10261000FE118CE290E00E94FE118CE290E00E949C
:10262000FE118A81843020F08CE290E00E94FE113D
:10263000DF91CF910895CF93DF93EC018A818330AE
:1026400061F48DE191E00E94FE118DE191E00E9424
:10265000FE118DE191E00E94FE118A81843020F00C
:102660008DE191E00E94FE11DF91CF9108950E94CB
:10267000E50F8093DE02823091F018F4813079F01A
:102680000895833019F0853031F008958CE490E09E
:102690000E94E41104C08CE490E00E94FE118CE4DE
:1026A00090E00E94E41108950E94E50F8093DC02FF
:1026B000823091F018F4813079F00895833019F068
:1026C000853031F008958AE290E00E94E41104C060
:1026D0008AE290E00E94FE118AE290E00E94E411FA
:1026E00008950E94E50F8093DA02823091F018F489
:1026F000813079F00895833019F0853031F00895F4
:1027000080E390E00E94E41104C080E390E00E9426
:10271000FE1180E390E00E94E41108950E94E50F0D
:102720008093D802823091F018F4813079F00895C6
:10273000833019F0853031F008958FE290E00E94E7
:10274000E41104C08FE290E00E94FE118FE290E05D
:102750000E94E41108950E94E50F8093D602823012
:1027600091F018F4813079F00895833019F08530B4
:1027700031F0089587E292E00E94E41104C087E2FC
:1027800092E00E94FE1187E292E00E94E411089517
:102790000E94E50F8093D402823091F018F48130CA
:1027A00079F00895833019F0853031F0089586E28C
:1027B00092E00E94E41104C086E292E00E94FE11C1
:1027C00086E292E00E94E41108950E94E50F809352
:1027D000D202823091F018F4813079F0089583307C
:1027E00019F0853031F0089580E392E00E94E41101
:1027F00004C080E392E00E94FE1180E392E00E9418
:10280000E41108950E94E50F8093D002823091F088
:1028100018F4813079F00895833019F0853031F063
:1028200008958FE292E00E94E41104C08FE292E0EA
:102830000E94FE118FE292E00E94E41108950E942E
:10284000E50F8093CE02833059F028F48130A1F057
:10285000823091F00895843041F0853049F0089538
:102860008CE290E00E94E41107C081EE90E006C087
:102870008CE290E00E94FE118CE290E00E94E41154
:1028800008950E94E50F8093CC02823091F018F4F5
:10289000813079F00895833019F0853031F0089552
:1028A0008DE191E00E94E41104C08DE191E00E946D
:1028B000FE118DE191E00E94E4110895CF93C82F9D
:1028C0000E949E1056985E9825982D9826982E98CE
:1028D00027982F9890E0FC013197E730F105A8F494
:1028E000E857FF4F0C94D331259A2D9A0EC0259AA4
:1028F0002D9A269A2E9A09C0259A2D9A04C0259AB7
:102900002D9A269A2E9A279A2F9A8C2FCF91089536
:10291000A0E0B0E0EEE8F4E10C948C2F20E9289FD1
:102920007001299FF00C1124C0E0D0E000E010E01D
:1029300067018FEFC81AD80A570182E0A80EB11CB0
:10294000F701EC0FFD1FE751FB4F6491F601EC0F0F
:10295000FD1FE751FB4F7491F501EC0FFD1FE7518F
:10296000FB4F8491611107C0711105C0811103C033
:1029700020E040E03CC00E942223962E372E882E75
:102980006091940370E080E090E00E94C43020E009
:1029900030E04FE753E40E9423302B013C01682DC7
:1029A00070E080E090E00E94C630A30192010E9496
:1029B00052310E949530862E692D70E080E090E0C3
:1029C0000E94C630A30192010E9452310E949530AC
:1029D000962E632D70E080E090E00E94C630A30147
:1029E00092010E9452310E949530282D492DC80134
:1029F0000E941F230F5F1F4F2396C039D10509F096
:102A00009FCFCDB7DEB7E1E10C94A82F80E290E034
:102A100090931D0180931C018091CA0281110EC008
:102A20000E94862E81E08093CA022FEF83ED90E30F
:102A3000215080409040E1F700C0000060E570E068
:102A400080E40E948C2E90931D0180931C01892BA1
:102A500009F04EC060E570E080E00E94FF2E909388
:102A60001D0180931C01892B09F042C060E570E0D4
:102A700080E00E94FF2E90931D0180931C01892B02
:102A8000B9F560E570E08FE30E94FF2E90931D0181
:102A900080931C01892B61F50E94732F60E570E023
:102AA00080E40E948C2E90931D0180931C01892B41
:102AB000F9F460E570E08CE00E94FF2E90931D0118
:102AC00080931C01892BA1F460E570E080E00E94F6
:102AD000FF2E90931D0180931C01892B49F460E522
:102AE00070E08FE30E94FF2E90931D0180931C01E4
:102AF0000E94732F80911C010895CF93DF93569805
:102B00005E9825982D9826982E9827982F98C8E893
:102B1000D0E08FEF90E099838883AAE8B0E0119627
:102B20009C938E93ECE8F0E091838083259A2D9A14
:102B30002FEF80E792E0215080409040E1F700C005
:102B40000000269A2E9A2FEF80E792E021508040D5
:102B50009040E1F700C00000279A2F9A2FEF80E7FE
:102B600092E0215080409040E1F700C0000025989D
:102B70002D982FEF80E792E0215080409040E1F7C0
:102B800000C0000026982E982FEF80E792E0215099
:102B900080409040E1F700C0000027982F98809176
:102BA0009C0387702FEF829FC00111249595879514
:102BB0009595879599279983888311969C938E93F1
:102BC0009183808356985E9825982D9826982E9804
:102BD00027982F98DF91CF910895CF93E82F8730D2
:102BE00080F580911C0190911D01892B09F047C04F
:102BF000CE2F60E570E080E40E948C2E90931D0142
:102C000080931C01892BD1F460E570E082E10E9481
:102C1000FF2E90931D0180931C01892B79F481E094
:102C200090E001C0880FCA95EAF760E570E08095F2
:102C30000E94FF2E90931D0180931C010E94732F10
:102C40001EC090E0FC013797E730F105C0F4E15772
:102C5000FF4F0C94D331209A289811C0219A2998BB
:102C60000EC0229A2A980BC0239A2B9808C0529A19
:102C70005A9805C0539A5B9802C03E9A4698CF91E5
:102C80000895209828982198299822982A9823987E
:102C90002B9852985A9853985B983E984698089566
:102CA000CF93873040F580911C0190911D01892BB5
:102CB00059F560E570E081E40E948C2E90931D012F
:102CC00080931C01892B11F0C0E011C080E590E0D9
:102CD0000E942E2F97FF05C090931D0180931C0129
:102CE000F3CFC82FC09510921D0110921C010E94B5
:102CF000732F8C2F0AC09FB18FB1807F86958695E8
:102D00009370892B809501C080E0CF9108958098C1
:102D1000889A8198899A84988C9A85988D9A8698B1
:102D20008E9A87988F9A089580E008959091330540
:102D300092FF0DC0282F2871283019F4877F8460F6
:102D400006C0282F2471243011F48B7F886093FFF4
:102D50000DC0282F2871283119F4877E846106C0A0
:102D6000282F2471243111F48B7E88612091340541
:102D700020FF0DC0382F3871383019F4877F8160FB
:102D800006C0382F3171313011F48E7F886021FFF9
:102D90000DC0282F2871283119F4877E816106C063
:102DA000282F2171213111F48E7E886194FD877E58
:102DB00008957E30A0F4663090F494E5899FF00188
:102DC000112486E0789FE00DF11D1124E60FF11D1E
:102DD000EE0FFF1FE752F74F85919491089580E021
:102DE00090E00895CF93DF938238910569F1B0F4B4
:102DF0008133910509F477C048F48932910509F4CB
:102E000069C08A32910509F473C092C08533910577
:102E100009F45BC089339105B9F08AC0833E9105FE
:102E200091F138F4803E9105D1F0823E910531F167
:102E30007FC0863E9105D9F1873E9105E9F1843E38
:102E4000910509F075C028C02091330520FD5BC0B5
:102E500021FD59C02091340523FD61C069C08091D6
:102E6000330580FD4AC08091340580FF4CC08091BD
:102E7000330584FD39C183EE90E038C1809133057C
:102E800082FF3EC0F4CF8091330582FD39C080912E
:102E9000340580FD38C0EBCF8091340581FF39C007
:102EA0008091330584FD20C187EE90E01FC18091A1
:102EB000330583FF2BC0F4CF8091330583FD26C0FB
:102EC0008091340581FD25C0EBCF8091330585FDD0
:102ED00026C022C08091330585FD1EC08091340537
:102EE00083FF1DC00AC08091330586FD1BC01DC035
:102EF0008091330586FD19C015C089E390E0F6C0C6
:102F000082EE90E0F3C080EE90E0F0C086EE90E0BC
:102F1000EDC084EE90E0EAC085E390E0E7C089E28E
:102F200090E0E4C08AE290E0E1C081E390E0DEC09E
:102F3000811532E5930708F05FC0811541E59407DC
:102F400028F0982F8827816F906AD0C0883E91051D
:102F500068F5803E910508F0C9C0883A9105B8F43B
:102F6000853A910548F0855AE82FF0E0EE54FE4F7F
:102F7000808190E09064BAC08130910509F4B1C0BD
:102F800008F4B2C08430910508F4AEC0AFC08F3BE6
:102F9000910508F0A9C0885AE82FF0E0EE0FFF1F56
:102FA000EB54FE4F808191819464A0C0811520E58F
:102FB0009207A0F0AC014370552721E030E002C039
:102FC000220F331F4A95E2F78695869540E2849F4B
:102FD000C0011124822B932B9D6888C0811530E499
:102FE000930718F09F70906A81C09C013A95211553
:102FF0003F4108F47BC078C0EC01C11586E5D807D5
:10300000E8F5C11525E5D20748F08C2F0E949616E9
:103010008F7190E0982F8827906268C0C11534E5C1
:10302000D30728F09C2F8827846F906A5FC0AE0179
:10303000437055272C2F26952695C115D34578F436
:1030400081E090E002C0880F991F4A95E2F740E2C4
:10305000249F90011124822B932B9C6847C081E010
:1030600090E002C0880F991F4A95E2F740E2249F42
:1030700090011124822B932B9A6838C0C1152AE540
:10308000D207F8F4C11539E5D30790F08C2F8F7073
:103090000E94961694E0D695C7959A95E1F7CF7061
:1030A000D0E0DC2FCC27D0699E01282BC9011EC09F
:1030B000C11548E5D407C0F09C2F8827806F906A1F
:1030C00015C0CE0190568115904270F48D2F8F71EE
:1030D0000E949616282F2F71CE0199279062922B6D
:1030E00005C081E090E002C080E090E0DF91CF91E8
:1030F000089568EE7EEF80E090E00E941D3060E071
:1031000082E090E00E94FF2F60E083E090E00E9468
:10311000FF2F1092590360E084E090E00E94FF2F9F
:1031200064E082E290E00E94FF2F60E085E090E0A2
:103130000E94FF2F60E086E090E00E94FF2F6FEF7B
:1031400087E090E00E94FF2F40E050E0BA0188E065
:1031500090E00E94113060E08DE090E00E94FF2F2F
:1031600040E050E0BA0188E190E00E94113060E058
:1031700087E190E00E94FF2F40E050E0BA018CE12F
:1031800090E00E94113060E070E080E290E00E94E8
:103190001D3040E050E0BA0188E190E00E9411301B
:1031A00010929C0310929D0310929E0310929F0315
:1031B00084E080939C0340919C0350919D03609117
:1031C0009E0370919F038FE090E00E94113040E0D9
:1031D00050E0BA0183E190E00E941130089580919F
:1031E000580381111092580308959091340592FF6D
:1031F00005C09091580398138093580308958095C3
:1032000090912505892380932505089580959091B7
:103210006103892380936103089590916103892B51
:103220008093610308959091610380912505982B07
:103230009093DF02809158038823D9F0892B8093E3
:10324000DF0280910601882331F08091330587FFEA
:1032500002C08EE101C086E0E1EEF2E090E0815034
:1032600028F021912223D9F39F5FF9CF91110E9479
:10327000EF1840E250E068E373E08FED92E00E94C7
:10328000FA32892B21F180E2EFEDF2E0A8E3B3E01E
:1032900001900D928A95E1F7E0912A05F0912B05B6
:1032A0003097A9F080910601882359F08091330569
:1032B00087FF07C08091DF028093E00286E0809361
:1032C000DF020280F381E02D8FED92E009950895F1
:1032D000209137038095822380933703982F97702E
:1032E00099F430E0482F082E000C550B24173507B1
:1032F00059F09091340592FF07C085958595859585
:103300000E94172D109237030895CF93C091340572
:10331000C2FB992790F9981791F080FBC2F9C093EE
:1033200034056091330584E090E00E94FF2F6C2FFC
:1033300082E290E00E94FF2F82E00E946819CF9104
:1033400008958091360390910503891719F08F5FD6
:103350008770FBCF08950F931F93CF93DF938091D6
:10336000040382958F7009F05AC08091010388236D
:1033700009F455C080913603109105036091FF0256
:1033800070910003C0910203D091030391E06F3F5D
:1033900009F090E0292F06E0811709F440C020973A
:1033A00021F07F3F21F030E003C031E001C0322F37
:1033B00090E030FD31C0089FF001099FF00D11240D
:1033C000DF01AA5FBC4F11963C911197371324C0BF
:1033D0003C91361321C012963C91129731111CC0BA
:1033E00013964D915C9114974C1B5D0B463951051A
:1033F00098F4809104038F70806180930403E55FEB
:10340000FC4F80818F70806180838FEF92E00E94FB
:10341000B5080E94A11903C001968770BDCFDF9146
:10342000CF911F910F910895A1E1B0E0EAE1FAE197
:103430000C94922F8C0185E0F801DE011D9601901D
:103440000D928A95E1F7F801E2809091FF02609178
:10345000000340910203509103034115510531F0DF
:103460006F3F31F481E09F3F19F403C081E001C058
:1034700080E0F82FF1709F2E80FD1BC1F801308194
:103480002181C380D4808FEFA82E82E0B82EF090E7
:103490000103F601E41BF50BFF2009F4C7C080917E
:1034A0000403E639F10508F092C0482F407F09F087
:1034B00051C0621311C093130FC0FE2CE1100CC059
:1034C0008F70806180930403C5010E94B5088091CC
:1034D0000403F80185832AC1C114D10431F02F3FC0
:1034E00031F481E03F3F19F403C081E001C080E086
:1034F00080FD03C081E08E2502C080E090E0F82FBF
:10350000F170FF2E80FF1CC08091360340910503AF
:1035100056E0841709F4E8C090E0589FF001599FE5
:10352000F00D1124EA5FFC4F6181261306C0608113
:10353000631303C06281E61203C001968770E9CF6E
:10354000FE2CEE2009F4F2C0809104038160809388
:10355000040349C0621306C0931304C0E11002C003
:10356000F80186C0C8010E94352D882351F1EE2054
:1035700041F120910403822F82958F7090E0029791
:1035800074F08091FF029091000398878F831986D1
:10359000DB86CA862C87CE0107960E94B50886E096
:1035A000F801AFEFB2E001900D928A95E1F70E9429
:1035B000AB190AC06217C9F0C8010E94352D8111EC
:1035C0001EC0C8010E94B508FF24F394AFC0482F65
:1035D000407F81F78FEF92E00E94B50886E0F50109
:1035E00011928A95E9F7F12CA1C09313E5CFE11070
:1035F000E3CFF8018583C8010E94B50854C0EE20CE
:1036000001F320910403822F82958F7090E002973E
:1036100034F28091FF02909100039A8389831B8288
:10362000DD82CC822E83CE010196B7CFE639F1053B
:10363000D0F5FE2CEE2029F2621327C0931325C08B
:103640002091040320FD18C0822F82958F70482F8F
:1036500050E04115510581F0F80125834F305105A7
:1036600041F08F5F982F9295907F822F8F70892BDA
:103670008583C8010E94B50886E0F801AFEFB2E08B
:1036800001900D928A95E1F751C0C8010E94352D35
:10369000811185CF80910403816080930403C80168
:1036A0000E94B50843C086E0F50111928A95E9F7BA
:1036B0003DC0EE2009F485CFC8010E94352DF82EBB
:1036C000882309F47ECF86E0F801AFEFB2E00190E5
:1036D0000D928A95E1F78091FF02909100030E947C
:1036E0009A2C0E94AB1922C03D872E878D859E851E
:1036F0000E949A2C292F22952F70223028F49F7037
:1037000039F0811105C00BC0243028F49F7049F4B2
:10371000805E883020F0C8010E94B5089F2CF92CEB
:1037200005C0F8019581907F99F7F9CF8F2D6196AB
:10373000EBE00C94AE2FA0E0B0E0E1EAFBE10C94EA
:10374000952F80911C0190911D01892BA1F08091F2
:103750005A038F5F80935A0381110DC00E94061592
:1037600090E090931D0180931C01892B21F40E940D
:103770007D150E94FE220AE315E07801D0E0C0E04A
:1037800087E0C82ECC0E8C2F0E94ED158C2D0E9448
:10379000ED158C2F0E9450168F73F70190818917B9
:1037A00021F08083DD24D39401C0D12C8C2D0E9484
:1037B00050168F73F7019781891719F0878381E07D
:1037C00001C080E0D82ADD290E944116CF5FFFEFBB
:1037D000EF1AFF0AC730A1F610925F03C0915E0393
:1037E000CC2309F487C00E94732720915C03309199
:1037F0005D03AC01421B530B9A0190935D038093D0
:103800005C034F3F510509F018F4452B19F102C034
:103810002FEF30E010925E0310925B03E0913805C9
:10382000F0913905AF01425F5F4F90E030E0808159
:10383000882341F0281718F010829C2F03C0821BA8
:1038400080833C2F3196E417F50789F730935E03A8
:1038500090935B03DD2309F43FC0E0913805F091BC
:10386000390580915F0390915E03AAE4B5E0AF0152
:10387000425F5F4F63E2E80128813C91321779F0A3
:10388000308131110CC060832C9398819227282FAE
:1038900030E0292B81E0232B09F480E091E0319680
:1038A00011960F5F1F4FE417F50729F780935F0309
:1038B00090935E03C0915F030E94FC2781FF03C0C9
:1038C000279A2F9A1BC080919B030E949E108330E1
:1038D000A9F027982F9812C081E090915B0399235B
:1038E00049F38111BACF0E94732790935D038093AF
:1038F0005C03B3CFD111F7CF80E0EFCF8C2FCDB7E2
:10390000DEB7E8E00C94B12F909191039370A1F091
:10391000811102C0946007C0833010F0986003C02A
:10392000880F880F982B9093910310920701809134
:1039300090038160809390030895FF920F931F93EB
:10394000CF93DF938C018AE0F82EF80184918823CD
:1039500009F44CC0813009F042C0E8012196FE0113
:103960008491813031F42196FE0184910E94672E6A
:1039700039C0823039F4E8012296FE0184910E9418
:10398000CB2D30C0833039F4E8012296FE018491BA
:103990000E949F2D27C0843029F5E8012296FE0160
:1039A000249180E090E030E0205331092A30310545
:1039B00060F4F89EA001F99E500D1124C901840FF6
:1039C000951F2196FE012491EECF009759F0EFE963
:1039D000FFE03197F1F700C000000197F6CF0E9499
:1039E0002A29E8018E010F5F1F4FAFCFCDB7DEB799
:1039F000E5E00C94B42F90919103937059F080936B
:103A000092036093930340939403809190038160A9
:103A1000809390030895EF92FF920F931F93CF939B
:103A2000DF937C018B010E944D26811119C0E701B3
:103A300001151105A1F08091E80085FD0AC0809173
:103A4000E8008E778093E8000E944D26882381F35A
:103A500007C089918093F10001501109E9CF80E0FE
:103A6000CDB7DEB7E6E00C94B32FAAE2B0E0EBE30B
:103A7000FDE10C949A2FE8E8F3E080E993E02091CF
:103A8000F10021938E179F07D1F78091890383302E
:103A900009F461C030F4813071F0823009F49DC0C6
:103AA000B4C08A3009F489C08B3009F46CC0893005
:103AB00009F0ABC020C080918803813A09F0A5C00D
:103AC0008091E800877F8093E80080918C0390913B
:103AD0008D03892B21F460E284E693E003C060E06B
:103AE00080E090E070E00E94D4268091E8008B771F
:103AF0008093E8008AC080918803813209F085C0F4
:103B000080918C0390918D03029708F07EC0809184
:103B1000E800877F8093E8008091E80082FD05C07F
:103B2000809186038111F8CF70C02091F3008091BD
:103B3000F20090E0922B029731F48091F1008130F5
:103B400011F0863021F48091F1008093630380911D
:103B5000E8008B7756C080918803813A09F055C000
:103B600080918C0390918D03892B09F04EC0809138
:103B7000E800877F8093E8008091E80080FFFCCF19
:103B80008091060139C0809188038132F1F58091DE
:103B90008C0390918D03892BC1F58091E800877F7C
:103BA0008093E8000E94802680918A03809306011A
:103BB000109261030E946C2D28C08091880381328D
:103BC00021F58091E800877F8093E8000E9480269D
:103BD00080918B038093620318C080918803813A9F
:103BE000A1F48091E800877F8093E8008091E8004D
:103BF00080FFFCCF809162038093F1008091E80008
:103C00008E778093E8000E9480268091E80083FFF1
:103C1000CEC18091880390918903492F50E04A30AA
:103C2000510508F0C4C1FA01EA56FF4F0C94D33194
:103C3000803821F0823809F0BAC108C0809184032D
:103C400090918503992389F082600FC080918C0345
:103C50008F70873008F0ABC18093E9008091EB0052
:103C600085FB882780F91092E9009091E800977F02
:103C70009093E8008093F1001092F10065C1282F25
:103C80002D7F09F094C1882319F0823061F08FC133
:103C900080918A03813009F08AC1933009F080E075
:103CA000809385032EC080918A0381112AC0809160
:103CB0008C038F702FEF280F263008F078C1809387
:103CC000E9002091EB0020FF1CC0933021F480918B
:103CD000EB00806214C09091EB0090619093EB0038
:103CE00021E030E0A90102C0440F551F8A95E2F798
:103CF0004093EA001092EA008091EB008860809384
:103D0000EB001092E9008091E800877F20C18111CB
:103D10004EC110918A031F778091E3008078812B38
:103D20008093E3008091E800877F8093E8000E9401
:103D300080268091E80080FFFCCF8091E3008068BE
:103D40008093E300111102C082E001C083E0809300
:103D500086032DC18058823008F029C180918A03E2
:103D600090918B038C3D53E0950779F583E08A832E
:103D70008AE289834FB7F894DE01139620E03EE093
:103D800051E2E32FF0E050935700E49120FF03C08D
:103D9000E295EF703F5FEF708E2F90E0EA3010F009
:103DA000C79601C0C0968D939D932F5F243149F72C
:103DB0004FBF8091E800877F8093E8006AE270E05F
:103DC000CE0101960E94D426AEC040918C03509142
:103DD0008D03292F332723303105A9F068F42130D2
:103DE000310509F4F3C02230310509F0E0C08BE35E
:103DF00090E0EEE1FEE044C02132310521F12232B3
:103E0000310571F1D4C0992781309105A1F058F0A6
:103E1000029709F0CCC0EBE6FEE0E4918E2F90E033
:103E2000EBE6FEE02AC0E7EBFEE0E4918E2F90E0A7
:103E3000E7EBFEE022C0EDE8FEE0E4918E2F90E09B
:103E4000EDE8FEE01AC04115510509F4C4C0413047
:103E5000510509F0ACC089E090E0E9E4FEE010C053
:103E60004115510509F4BCC04130510509F09FC00E
:103E70008DE690E0E1E7FDE003C0009709F497C00C
:103E80002091E800277F2093E80020918E03309155
:103E90008F038217930708F49C0140E02115310538
:103EA00089F180918603882309F43DC08530D9F1DA
:103EB0008091E80083FD37C08091E80082FD2FC02B
:103EC0008091E80080FFEACF4091F3008091F200FA
:103ED00090E0942B2115310559F08830910540F47C
:103EE00044914093F1003196215031090196F2CF6F
:103EF00041E0089709F040E08091E8008E778093D8
:103F0000E800CCCF4111CDCF0AC080918603882331
:103F100051F0853041F08091E80083FD04C080912C
:103F2000E80082FFF2CF8091E8008B778093E80071
:103F30003EC08038E1F58091E800877F8093E800FB
:103F4000809187038093F1008091E8008E778093C1
:103F5000E8000E9480262BC0811129C080918A032D
:103F600090918B039927029714F58091E800877F41
:103F70008093E80010918A03109387030E948026A3
:103F8000111106C08091E30087FD02C081E001C0ED
:103F900084E08093860342E061EC81E00E949F26EA
:103FA00042E261EC82E00E949F268091860380912C
:103FB000E80083FF1AC08091E800877F8093E800C3
:103FC0008091EB0080628093EB000FC082E190E073
:103FD000E9E5FEE055CF89E090E0E0E3FEE050CF78
:103FE00080E490E0EEEDFDE04BCFAA96E3E00C9488
:103FF000B62F1F920F920FB60F9211242F933F935B
:104000004F935F936F937F938F939F93AF93BF93E0
:10401000CF93DF93EF93FF93C091E900CF7080912E
:10402000EC00D82FD17080FDD0E81092E90080918B
:10403000F000877F8093F00078940E94351D1092E5
:10404000E9008091F00088608093F000CD2BCF7064
:10405000C093E900FF91EF91DF91CF91BF91AF91B4
:104060009F918F917F916F915F914F913F912F9190
:104070000F900FBE0F901F901895E8EDF0E0808133
:104080008E7F80831092E2001092DA001092E1009D
:10409000A0EEB0E08C9181608C9380818F778083DB
:1040A00019BCA7EDB0E08C918E7F8C9380818F7EC0
:1040B0008083109260030895A0E0B0E0E2E6F0E2B1
:1040C0000C94952FC8EDD0E088818F7E8883E7ED32
:1040D000F0E080818160808384E082BF81E0809312
:1040E000600388818E7F888302EE10E0F8011082E1
:1040F0001092DA0081EEC82ED12CF6011082888150
:104100008F77888388818068888388818F7D888382
:1041100019BC1092860310928703109285031092A7
:10412000840390EEE92EF12CF70180818B7F808350
:1041300088818160888342E060E080E00E949F2661
:10414000F60180818E7F8083F80180818160808389
:10415000808188608083F70180818E7F8083888161
:1041600080618883CDB7DEB7E8E00C94B12F1F9251
:104170000F920FB60F9211242F933F934F935F939B
:104180006F937F938F939F93AF93BF93EF93FF931F
:104190008091E10082FF09C08091E20082FF05C0AA
:1041A0008091E1008B7F8093E1008091DA0080FFB5
:1041B0002AC08091D80080FF26C08091DA008E7FCF
:1041C0008093DA008091D90080FF18C080E189BD1A
:1041D00082E189BD09B400FEFDCF81E080938603B2
:1041E0008091600381110FC00E943D200E945C20DD
:1041F0008091E20084608093E20005C019BC1092B7
:104200008603109260038091E10080FF17C08091C7
:10421000E20080FF13C08091E2008E7F8093E20075
:104220008091E20080618093E2008091D8008062FA
:104230008093D80019BC85E0809386038091E100CB
:1042400084FF30C08091E20084FF2CC080E189BDF2
:1042500082E189BD09B400FEFDCF8091D8008F7D39
:104260008093D8008091E1008F7E8093E10080915F
:10427000E2008F7E8093E2008091E2008160809373
:10428000E20080918703882311F084E007C08091C9
:10429000E30087FD02C081E001C083E080938603D4
:1042A000809186038091E10083FF27C08091E20026
:1042B00083FF23C08091E100877F8093E10082E04B
:1042C00080938603109287038091E1008E7F809314
:1042D000E1008091E2008E7F8093E2008091E20015
:1042E00080618093E20042E060E080E00E949F26CF
:1042F0008091F00088608093F000FF91EF91BF9172
:10430000AF919F918F917F916F915F914F913F916D
:104310002F910F900FBE0F901F901895E1E9F3E0D9
:10432000248130E1231B08F420E024838091900352
:104330008160809390030895E1E9F3E0248130E106
:10434000230F08F42FEF24838091900381608093E2
:10435000900308958091B903882329F06BEB73E0F3
:1043600084E70E940D2A1092B9038091BA03882332
:1043700029F06BE474E087E70E940D2A1092BA03DB
:104380000895A4E0B0E0E7ECF1E20C948F2F0E94D6
:10439000862E84E70E94BC2987E70E94BC290BEB8C
:1043A0001FE072E1772EE8E0CE2ED12CEE24E394CC
:1043B000F12C6624639444E050E0B801CE010196EC
:1043C0000E94C22F2A8130E0C9018497AB80B12CB2
:1043D00044E2A41AB108EC81F0E0B497AC0197FF75
:1043E00002C0495F5F4F63E0559547956A95E1F7D5
:1043F0002981237030E0729EB001739E700D1124EC
:1044000065527B4F4B01840E911CB6010E94BF3157
:10441000D70102C0AA0FBB1F8A95E2F7CD01D401D4
:104420009C91892B8C93C501B7FC079653E0959519
:1044300087955A95E1F7729EA001739E500D112445
:1044400045525B4F4A01880E911CC501B6010E947E
:10445000BF31A70102C0440F551F8A95E2F7CA0178
:10446000D4019C91892B8C93CF01F7FD079643E0F3
:10447000959587954A95E1F7729EA001739E500D20
:10448000112445525B4F5A01A80EB11CCF01B60151
:104490000E94BF31F70102C0EE0FFF1F8A95E2F7BD
:1044A000CF01D5019C91892B8C93F901E150FB4FF1
:1044B00060820C5F1F4FB0E10B371B0709F07BCF09
:1044C00060E084E70E948E2961E087E70E948E29E0
:1044D0002496EEE00C94AB2FE1E9F3E0438120E178
:1044E000421B08F440E08181628190E00E94FB1C45
:1044F0000895E1E9F3E0438120E1420F08F44FEF32
:104500008181628190E00E94FB1C0895E1E9F3E063
:10451000628120E1621B08F460E08181438190E0C8
:104520000E94FB1C0895E1E9F3E0628120E1620F43
:1045300008F46FEF8181438190E00E94FB1C089595
:10454000E1E9F3E0818190E04381628108970E9474
:10455000FB1C0895E1E9F3E0818190E043816281F1
:1045600008960E94FB1C089580919103869586957C
:10457000815009F482E00E94841C08958091910387
:10458000869586958F5F833008F081E00E94841CB9
:104590000895E1E9F3E085E080838091AA0190919C
:1045A000AB01A091AC0181839283A3838CE38483CC
:1045B0008FEF858346E050E06CE170E0CF010E9410
:1045C000EF2F109290030895E5EAF3E060834183B2
:1045D00023E030E042E050E0BF01880F0E94522FFC
:1045E000089580919103837011F4109207018091D6
:1045F00091038C7F81608093910308950E94C12173
:1046000080E090E00E94E92F883E9E4F21F00E94BA
:1046100079180E94C92246E050E06CE170E081E91F
:1046200093E00E94CB2F10929003809191038C7F96
:1046300011F40E94C92208950E94342608950E9410
:10464000F6250895A0E0B0E0E8E2F3E20C94952F9F
:10465000F62E472FE82FF0E0711106C0E554F14F18
:104660008491782F682F73C0272F30E0E554F14FE5
:10467000E491FE2F0E2F10E056E0659FC00111243B
:10468000CFEFD0E0BE010E94772F5BEA5603C00156
:10469000579F900D11248F0D911D8F0D911D982FF7
:1046A000990F980F7E01E21AF30AE09ED001E19E75
:1046B000B00DF09EB00D11248B2F499FA001112445
:1046C000452F55277E01E41AF50AE09EA001E19EE0
:1046D000500DF09E500D11246E01C91AD108C29ED2
:1046E0007001C39EF00CD29EF00C11242F2D3327A5
:1046F000C21BD30BC09F9001C19F300DD09F300DC6
:104700001124932F6230710591F048F46115710501
:10471000E1F061307105B9F49E2FE52F16C06430C9
:10472000710569F040F06630710579F00CC09E2F7C
:10473000EB2F832F0AC0EB2F8F2F952F06C09B2FB7
:104740008E2FE32F02C09B2F852F7E2F692FCDB791
:10475000DEB7E8E00C94B12FEF92FF920F931F9316
:10476000CF93DF93D82F809109018D130DC0209135
:104770009103237030E04091080150E081E024175C
:10478000350719F480E001C081E0817080930C014D
:104790008091960390910B01981739F080930B014B
:1047A00040E060E080E00E941C23D13059F5809108
:1047B0000A01C82FCC0FCC0FC80F15E01C0F113306
:1047C00008F010E360919203709193038091940339
:1047D0000E942223062FF72EE82EC11708F039C0B9
:1047E000EC2FF0E0DF01A956BD4F8C9190910B01A9
:1047F000982331F02E2D402F6F2DCF010E941F23C3
:10480000CF5FEBCFD13048F1D23009F063C0809157
:104810000A01C82FCC0FCC0FC80F15E01C0F1133A5
:1048200008F010E3209195032695269531E0230F9B
:1048300008F42FEF4091A0035091A10380E090E095
:10484000429F812D529F800D911D1124082FC11769
:1048500010F181E0103358F009C080910C018823D9
:1048600029F040E060E080E00E941C2380E090910D
:104870000A019F5F90930A01811165C082E08093D5
:10488000070180910C0181115EC0D1115CC083E0F1
:104890008093070158C0EC2EF12CF701E956FD4F2B
:1048A000908180910B01892399F070919303F70116
:1048B000EE0FFF1FE85CFD4F6081601B8091940349
:1048C0000E942223462F282F672FC7010E941F23F3
:1048D000CF5FBDCFDF3F89F58091A0039091A10309
:1048E000A091A203B091A30388279C70AA27BB279D
:1048F0002AE0B695A795979587952A95D1F78230A6
:104900009105A105B10571F083309105A105B105AF
:1049100069F040E00197A105B10511F060E008C021
:1049200064E102C044E160E080E003C044E164E18E
:1049300084E10E941C2382E0ABCF80910A018F5F4B
:1049400080930A019BCFCDB7DEB7E6E00C94B32F7E
:104950000F931F93CF930E946727609397037093E1
:1049600098038093990390939A032091A4032111B3
:1049700008C0C09191032C2F237019F0C695C695DD
:1049800001C0C0E0209107012130A1F038F02230B1
:1049900009F475C0233009F47FC0A9C010920A0140
:1049A0006093A0037093A1038093A2039093A30349
:1049B00081E06FC08C2F0E94AC23CC2309F497C0F8
:1049C00080919C0383FD93C080919B0390E0A0E0C5
:1049D000B0E0AC01BD01F4E0769567955795479539
:1049E000FA95D1F7411551056105710521F4AC0126
:1049F000BD0180E001C084E08A019B01E2E03695C0
:104A0000279517950795EA95D1F701151105210509
:104A1000310519F08E5FB901A80176956795579514
:104A20004795452B462B472B09F08F5F833099F034
:104A300038F4813069F08230C9F482E090E00DC032
:104A4000853089F068F0863089F486E090E005C012
:104A500081E090E002C083E090E00E94881447C0AB
:104A600084E090E0FACF85E090E0F7CF8091960364
:104A700081113DC040E060E00E941C2338C0C0931B
:104A80000901809191038370809308010E94AA21FB
:104A900083E0809307012BC080919003882351F01D
:104AA00046E050E06CE170E081E993E00E94EF2F76
:104AB000109290034091A0035091A1036091A20332
:104AC0007091A3032FB7F89480912F059091300532
:104AD000A0913105B09132052FBF841B950BA60B19
:104AE000B70B4A97A105B10510F010920701CF91BD
:104AF0001F910F910895089508958091630308957B
:104B00008093350570933705609336058091860351
:104B1000843001F582E08093E9008FEF9091E80006
:104B2000815095FD06C095ED9A95F1F70000811131
:104B3000F5CF8091E80085FF0DC040E050E063E0D4
:104B400070E085E395E00E940B1D8091E8008E7770
:104B50008093E8000895BC0184E00E9480250895B8
:104B6000BC0183E00E9480250895CF93DF932091BC
:104B70000601222339F02091330527FF03C060E2AC
:104B800022E002C068E021E02093E9002FEF30919D
:104B9000E800215035FD06C035ED3A95F1F70000EB
:104BA0002111F5CF2091E80025FF1DC0EC01809177
:104BB0000601811105C040E050E068E070E003C0EC
:104BC00070E040E050E0CE010E940B1D8091E800B3
:104BD0008E778093E80080E2FE01A4E6B3E00190C6
:104BE0000D928A95E1F7DF91CF910895A4E0B0E0AE
:104BF000ECEFF5E20C94982F8033910588F5122F95
:104C0000042FF62EBC01660F771F660F771F6554C1
:104C1000704F44E050E0CE0101960E94C22F89817E
:104C200083704A81282F30E050E9859FC00111240C
:104C300085549C4FFC01E40FF11DB497F0824B8129
:104C4000FC01E40FF11DB49700834C81840F911D8A
:104C5000FC01B4971083F901E754FC4F81E0808395
:104C60002496E5E00C94B42FFF920F931F93CF93FB
:104C7000DF93182F062FF42EC0E0D0E02F2D402F09
:104C8000612FCE010E94F6252196C033D105B1F7E0
:104C9000CDB7DEB7E5E00C94B42F2091E40030915D
:104CA000E50095E64091EC00842F817040FF23C021
:104CB0008091E80080FD1DC080918603882399F0D3
:104CC000853099F08091EB0085FD11C04091E400A2
:104CD0005091E5002417350729F3915011F09A01FE
:104CE000E1CF84E0089582E0089583E0089581E0B3
:104CF000089580E008954091E80042FFDDCF0895D7
:104D00008091880387FF11C08091E80082FD05C073
:104D1000809186038111F8CF11C08091E8008B77D4
:104D20000BC080918603882349F08091E80080FFC2
:104D3000F8CF8091E8008E778093E8000895982F4F
:104D4000973068F59093E900981739F07091EC006E
:104D50002091ED005091F00003C0242F762F50E0F9
:104D600021FD02C09F5FECCF3091EB003E7F30937E
:104D7000EB003091ED003D7F3093ED003091EB0082
:104D800031603093EB007093EC002093ED00509372
:104D9000F0002091EE0027FDE5CF80E008958F70B0
:104DA0008093E90081E0089520918E0330918F0374
:104DB0002617370748F06115710539F42091E8008E
:104DC0002E772093E80001C0B901FC0120E06115B5
:104DD000710579F1809186038823F1F18530F1F135
:104DE0008091E80083FD3CC08091E80082FD2EC0E8
:104DF0008091E80080FFEBCF2091F3008091F200DA
:104E000090E0922B6115710551F08830910538F4CE
:104E100021912093F100615071090196F3CF21E0B7
:104E2000089709F020E08091E8008E778093E800F1
:104E3000CECF2111CFCF0AC080918603882361F0A5
:104E4000853061F08091E80083FD0AC08091E80020
:104E500082FFF2CF80E0089582E0089583E0089514
:104E600081E0089578941F920F920FB60F9211244B
:104E70008F939F93AF93BF9380912F0590913005AF
:104E8000A0913105B09132050196A11DB11D80930D
:104E90002F0590933005A0933105B0933205BF9153
:104EA000AF919F918F910F900FBE0F901F9018950B
:104EB0009C014FB7F89480912F0590913005A091F7
:104EC0003105B09132054FBF821B930B08952FB768
:104ED000F89460912F057091300580913105909183
:104EE00032052FBF08952FB7F89480912F05909128
:104EF0003005A0913105B09132052FBF08951F9262
:104F00000F920FB60F9211248F939F93AF93BF937D
:104F100080912E05811113C080912F05909130054D
:104F2000A0913105B09132054196A11DB11D80932C
:104F30002F0590933005A0933105B0933205BF91B2
:104F4000AF919F918F910F900FBE0F901F9018956A
:104F5000209106012223C9F02091330527FF15C0B7
:104F6000262F2695269526952E31C8F4FC01E20FB2
:104F7000F11D677081E090E001C0880F6A95EAF743
:104F800080959281892382830895FC01069622816F
:104F9000621301C012823196E817F907C1F708952C
:104FA00020912C0530912D052817390771F0909329
:104FB0002D0580932C05E0912A05F0912B05309763
:104FC00021F00084F185E02D0995089520912805B0
:104FD000309129052817390771F09093290580939E
:104FE0002805E0912A05F0912B05309721F00680E5
:104FF000F781E02D09950895E0912A05F0912B05A0
:10500000309729F00190F081E02D0995089580E016
:105010000895CF93DF93EC01EA85FB85309719F073
:105020006C857D8509958B810E94FF188C810E947B
:1050300006190E94131986E0FE0111928A95E9F77C
:10504000DF91CF910895CF93DF93EC018D8181FDA6
:1050500015C082608D83909125058B81892B80936B
:1050600025058C810E940D190E941319E885F98588
:10507000309721F06C857D85CE010995109227052A
:10508000109226058D8180FD03C0CE010E94092863
:10509000DF91CF91089580910F01877F80930F0159
:1050A00082E00E94FF1880910F0184FF06C08F7E6E
:1050B00080930F0182E00E940D1980910F0185FFFE
:1050C00006C08F7D80930F0180E20E940D190E941F
:1050D00013190895A0E0B0E0E0E7F8E20C94962FF1
:1050E000EC018B0180910F0182FF91C0E0902305BC
:1050F000F0902405EC16FD0619F0209709F087C002
:1051000080910F018B7F80930F0181FD11C08091F1
:10511000210590912205A801481B590B81E020919F
:105120000D0130910E014217530718F480E001C0C1
:1051300081E08170D82E80910F01D0FA81F980939F
:105140000F01E701DD27FE0184E0F695E7958A95DA
:10515000E1F797012F703327EE0FFF1FEF5FFA4F34
:1051600081E090E002C0880F991F2A95E2F7DD20C8
:1051700029F020813181822B932B06C08095909558
:1051800020813181822393239183808380916103E5
:1051900081FF08C080910F01806180930F0182E040
:1051A0000E9406198091610385FF08C080910F015C
:1051B000806280930F0180E20E940619DD2039F0A1
:1051C000809125058260809325050E941319C701EF
:1051D0009056811520E2920720F0905E8115904153
:1051E00008F47E01C7010E94E4118091230590918B
:1051F00024059C013056211540E2340720F0305E32
:105200002115304108F499270E94CA1018C09E0148
:105210003327CE019056811540E2940720F0905E2E
:105220008115904110F4C90101C0CE010E94CA103D
:105230008091230590912405C817D90711F40E9485
:105240004B281093220500932105CDB7DEB7E7E088
:105250000C94B22FA0E0B0E0E0E3F9E20C94962FBA
:10526000E82FF0E0E555FF4ED490282F269526959F
:10527000269530E0F901E556FF4E0491877010E065
:10528000082E02C0159507950A94E2F701701127C0
:10529000F901E557FF4EE490F12C082E02C0F59479
:1052A000E7940A94E2F791E0E922FF24F901E55836
:1052B000FF4EC491D0E002C0D595C7958A95E2F71C
:1052C000C170DD270115110519F081EE0E94CB2D6B
:1052D000E114F10419F086EE0E94CB2D8D2D0E9471
:1052E000672EE114F10419F086EE0E949F2D01153E
:1052F000110519F081EE0E949F2DCD2B19F08CE243
:105300000E94672ECDB7DEB7E7E00C94B22F88235A
:1053100011F0FA0101C0FB0109950895A0E0B0E089
:10532000E4E9F9E20C94962F262F30E0A9014150D0
:105330005B4F7A01FA019081911107C0F701108249
:10534000CDB7DEB7E7E00C94B22FD82EF2E16F9F15
:10535000E001112400E010E0F801EC0FFD1FE55220
:10536000FB4F4081602F8D2D0E94E4220F5F1F4F65
:105370000231110589F7E2CFCF93DF93C82F4BE0BD
:105380006DEF0E94E42240E06AE08C2F0E94E4224C
:105390008FE39CE90197F1F700C0000040E060E076
:1053A0008C2F0E94E42240E061E08C2F0E94E422D6
:1053B00040E066E08C2F0E94E42240E06DEF8C2FED
:1053C0000E94E422D0E040E06D2F8C2F0E94E42266
:1053D000DF5FD231C1F740E06D2F8C2F0E94E422B5
:1053E000DF5FD432C1F740E06D2F8C2F0E94E422A2
:1053F000DF5FD43BC1F74BE06DEF8C2F0E94E422BE
:1054000041E06AE08C2F0E94E42240E06DEF8C2F97
:105410000E94E422DF91CF9108950F931F93CF93C1
:10542000DF93082F000FEB0114E21093A503E6EAC7
:10543000F3E0DE018D91819383E0E63BF807D1F73D
:1054400023E030E041E150E065EA73E0802F0E9404
:10545000522F105F6096143B41F7DF91CF911F915F
:105460000F910895AAE0B0E0E8E3FAE20C948E2FE1
:1054700085B7806885BF85B7806885BF84B7877F1B
:1054800084BF0FB6F894A8958091600088618093DE
:105490006000109260000FBE90E080E80FB6F894B4
:1054A00080936100909361000FBE84E996E1909330
:1054B000C9028093C8020E943D200E945C20809116
:1054C000E20084608093E2007894809186038823D0
:1054D000A1F01091E9001F709091EC00892F81706C
:1054E00090FD80E8182B1092E9008091E80083FD80
:1054F0000E94351D1F701093E90082E084BD93E087
:1055000095BD9AEF97BD80936E000E94061590E0BE
:1055100090931D0180931C010E9441160E948716E2
:10552000EAE3F5E0AAE4B5E011921D9225E0E83443
:10553000F207D1F78EE090E00E94D93180933805D0
:1055400090933905FC010E961192E817F907E1F7DF
:1055500089EA8093800089E08093810024982C98C8
:105560003F988AB18F7C8AB96E98479A8BB18063D5
:105570008BB9769A8FE090E00E94E32F60939C03B2
:1055800070939D0380939E0390939F0367708FEFAA
:10559000689FB00111247595679575956795772774
:1055A000709389006093880070938B0060938A00E9
:1055B00070938D0060938C000E947D1580E090E0D8
:1055C0000E94E92F883E9E4F11F00E94791882E0D8
:1055D00090E00E94DB2F8093580584E090E00E94C9
:1055E000DB2F182F82E290E00E94DB2F212F30E08A
:1055F000382B309334052093330583E090E00E94EC
:10560000DB2F0E94302D80919B030E945E140E942C
:10561000FE220E94F1220E94F1228091900381607B
:105620008093900380E191E090932B0580932A056D
:1056300038E1E32EF12C40E4942E88248394809169
:105640008603853009F06FC023E0D22E00E112E11D
:1056500080918603853009F05EC080918603843096
:1056600009F436C00E94A8248091A40381110DC0C2
:105670000E94AC2310920901809191038370809362
:1056800008010E94AA21D09207018092A4031092DF
:105690002E050FB6F894A895E09260000FBE909288
:1056A000600083B7817F846083BF83B7816083BFDD
:1056B0007894889583B78E7F83BF0FB6F894A895AA
:1056C00080916000886180936000109260000FBE3E
:1056D00080918503882309F4BBCF0E94061590E0D2
:1056E00090931D0180931C010E9441160E94871611
:1056F000EAE4F5E0119225E0E835F207D9F70E94D7
:105700009B1BEAE4F5E081918111C0C085E0E8359A
:10571000F807C9F79DCF109261030E946C2D0E947B
:10572000FC271092A4030E949B1B99E5C92E95E0CB
:10573000D92EAAE4B5E0F60191918D91892795E0E3
:10574000E736F90719F08823B9F322C0811120C088
:105750000E9473278C018091480590914905081794
:10576000190709F449C08FEF89838A831B820E943D
:1057700073278160782F9D838C8349815A816B8147
:105780008D810E94FF0F109349050093480534C096
:105790008AE4A82E85E0B82E10E0F50151905F0153
:1057A000F6016080652401F100E077247394862D72
:1057B0008721A1F00E831F8391E0872D852109F4B5
:1057C00090E098870E9473278160782F9A87898755
:1057D0004E815F8168858A850E94FF0F0F5F770C7D
:1057E000063029F7F60150821F5FFFEFCF1ADF0A5C
:1057F0001E3099F60E946727809126059091270513
:10580000892BC9F080916705909168050E945827FF
:105810008739910580F0809126052EE0829FC00196
:105820001124FC01ED5DFE4F208122FD04C0825E4B
:105830009E4F0E94232880910F0182FF19C00E9471
:1058400073272091210530912205AC01421B530B97
:1058500020910D0130910E014217530748F049E69F
:1058600055E0BC0180912305909124050E946A288F
:105870000E94A8240E94FC2790916F05891709F4C3
:10588000DECE80936F050E946727D9CE09BD19BD72
:1058900009B400FEFDCF8091D8008F7D8093D800A1
:1058A0008091E00082608093E0008091E00081FDC3
:1058B000FCCF109261030E946C2DCACE80E090E074
:1058C0000E94E62780E090E00E94D02710922505F4
:1058D0000E9413190895CF92DF92FF920F931F93A6
:1058E000CF93DF936C0100919B0380915903082BA8
:1058F000C7E0D0E010E0C8010C2E02C09595879556
:105900000A94E2F780FD04C02197A8F7F12C09C0A2
:10591000FC2EB6018C2F0E94D9160E94F216019718
:1059200099F38F2DDF91CF911F910F91FF90DF9011
:10593000CF900895CF93DF93EC010E946B2CBE01B2
:105940000E94D9160E94F216DF91CF910895292F57
:105950009E3078F5863068F590E036E0239F800D24
:10596000911D1124682F677023E0969587952A95DD
:10597000E1F7FC01EE0FFF1FE80FF91FE059FA4FA6
:1059800040E050E080E0219130E0062E02C03695E4
:1059900027950A94E2F721703327042E01C0220FC5
:1059A0000A94EAF7822B4F5F5F4F4330510559F756
:1059B000089580E00895292F9E3088F5863078F587
:1059C00090E036E0239F800D911D1124282F277031
:1059D00051E001C0550F2A95EAF723E09695879587
:1059E0002A95E1F7FC01EE0FFF1FE80FF91FE059C0
:1059F000FA4F20E030E070E04081CB01022E02C07F
:105A0000969587950A94E2F781708195842785237E
:105A1000842781932F5F3F4F2330310569F7089525
:105A20000E945E1480939B030E945E2C089521E0E7
:105A300030E001C0220F8A95EAF7209580919B0300
:105A400082230E94102D089521E030E001C0220F32
:105A50008A95EAF780919B03822B0E94102D08956E
:105A6000809359030E945E2C0895CF93FC0180819E
:105A7000918123813481232B31F09F3F31F491E0D8
:105A80008F3F19F403C091E001C090E0C92FC170AD
:105A900090FD1CC0808191810E949A2C92959F70EC
:105AA000963079F010F4925001C09A50923088F4F8
:105AB000803F71F018F4883E60F40AC0843F49F4D6
:105AC00007C0883E28F0813F21F402C0C0E001C039
:105AD000C1E08C2FCF91089580910601882331F089
